{
  "contractName": "ClaimContract",
  "abi": [
    {
      "inputs": [],
      "stateMutability": "nonpayable",
      "type": "constructor"
    },
    {
      "inputs": [],
      "name": "claimInformation",
      "outputs": [
        {
          "internalType": "string",
          "name": "claimNumber",
          "type": "string"
        },
        {
          "internalType": "string",
          "name": "accNumber",
          "type": "string"
        },
        {
          "internalType": "string",
          "name": "firstName",
          "type": "string"
        },
        {
          "internalType": "string",
          "name": "lastName",
          "type": "string"
        },
        {
          "internalType": "string",
          "name": "email",
          "type": "string"
        },
        {
          "internalType": "string",
          "name": "vehcileReg",
          "type": "string"
        },
        {
          "internalType": "string",
          "name": "accidentDesc",
          "type": "string"
        },
        {
          "internalType": "string",
          "name": "dateOfAccident",
          "type": "string"
        },
        {
          "internalType": "string",
          "name": "progress",
          "type": "string"
        }
      ],
      "stateMutability": "view",
      "type": "function",
      "constant": true
    },
    {
      "inputs": [],
      "name": "getClaimInfo",
      "outputs": [
        {
          "components": [
            {
              "internalType": "string",
              "name": "claimNumber",
              "type": "string"
            },
            {
              "internalType": "string",
              "name": "accNumber",
              "type": "string"
            },
            {
              "internalType": "string",
              "name": "firstName",
              "type": "string"
            },
            {
              "internalType": "string",
              "name": "lastName",
              "type": "string"
            },
            {
              "internalType": "string",
              "name": "email",
              "type": "string"
            },
            {
              "internalType": "string",
              "name": "vehcileReg",
              "type": "string"
            },
            {
              "internalType": "string",
              "name": "accidentDesc",
              "type": "string"
            },
            {
              "internalType": "string",
              "name": "dateOfAccident",
              "type": "string"
            },
            {
              "internalType": "string",
              "name": "progress",
              "type": "string"
            }
          ],
          "internalType": "struct ClaimContract.ClaimInformation",
          "name": "",
          "type": "tuple"
        }
      ],
      "stateMutability": "view",
      "type": "function",
      "constant": true
    },
    {
      "inputs": [
        {
          "internalType": "string",
          "name": "_claimNumber",
          "type": "string"
        },
        {
          "internalType": "string",
          "name": "_accNumber",
          "type": "string"
        },
        {
          "internalType": "string",
          "name": "_firstName",
          "type": "string"
        },
        {
          "internalType": "string",
          "name": "_lastName",
          "type": "string"
        },
        {
          "internalType": "string",
          "name": "_email",
          "type": "string"
        },
        {
          "internalType": "string",
          "name": "_vehicleReg",
          "type": "string"
        },
        {
          "internalType": "string",
          "name": "_accidentDesc",
          "type": "string"
        },
        {
          "internalType": "string",
          "name": "_dateOfAccident",
          "type": "string"
        },
        {
          "internalType": "string",
          "name": "_progress",
          "type": "string"
        }
      ],
      "name": "setClaimInfo",
      "outputs": [],
      "stateMutability": "nonpayable",
      "type": "function"
    }
  ],
  "bytecode": "0x60806040523480156200001157600080fd5b506040518060400160405280600781526020017f64656661756c740000000000000000000000000000000000000000000000000081525060008001908051906020019062000061929190620002f0565b506040518060400160405280600781526020017f64656661756c740000000000000000000000000000000000000000000000000081525060006001019080519060200190620000b2929190620002f0565b506040518060400160405280600781526020017f64656661756c74000000000000000000000000000000000000000000000000008152506000600201908051906020019062000103929190620002f0565b506040518060400160405280600781526020017f64656661756c74000000000000000000000000000000000000000000000000008152506000600301908051906020019062000154929190620002f0565b506040518060400160405280600781526020017f64656661756c740000000000000000000000000000000000000000000000000081525060006004019080519060200190620001a5929190620002f0565b506040518060400160405280600781526020017f64656661756c740000000000000000000000000000000000000000000000000081525060006005019080519060200190620001f6929190620002f0565b506040518060400160405280600781526020017f64656661756c74000000000000000000000000000000000000000000000000008152506000600601908051906020019062000247929190620002f0565b506040518060400160405280600781526020017f64656661756c74000000000000000000000000000000000000000000000000008152506000600701908051906020019062000298929190620002f0565b506040518060400160405280600781526020017f64656661756c740000000000000000000000000000000000000000000000000081525060006008019080519060200190620002e9929190620002f0565b5062000404565b828054620002fe90620003cf565b90600052602060002090601f0160209004810192826200032257600085556200036e565b82601f106200033d57805160ff19168380011785556200036e565b828001600101855582156200036e579182015b828111156200036d57825182559160200191906001019062000350565b5b5090506200037d919062000381565b5090565b5b808211156200039c57600081600090555060010162000382565b5090565b7f4e487b7100000000000000000000000000000000000000000000000000000000600052602260045260246000fd5b60006002820490506001821680620003e857607f821691505b602082108103620003fe57620003fd620003a0565b5b50919050565b61133d80620004146000396000f3fe608060405234801561001057600080fd5b50600436106100415760003560e01c806303f4c6bb14610046578063851824161461006c578063ebe1615e1461008a575b600080fd5b61004e6100a6565b60405161006399989796959493929190610d63565b60405180910390f35b6100746105aa565b6040516100819190610f76565b60405180910390f35b6100a4600480360381019061009f91906110e1565b610ae7565b005b60008060000180546100b7906112d6565b80601f01602080910402602001604051908101604052809291908181526020018280546100e3906112d6565b80156101305780601f1061010557610100808354040283529160200191610130565b820191906000526020600020905b81548152906001019060200180831161011357829003601f168201915b505050505090806001018054610145906112d6565b80601f0160208091040260200160405190810160405280929190818152602001828054610171906112d6565b80156101be5780601f10610193576101008083540402835291602001916101be565b820191906000526020600020905b8154815290600101906020018083116101a157829003601f168201915b5050505050908060020180546101d3906112d6565b80601f01602080910402602001604051908101604052809291908181526020018280546101ff906112d6565b801561024c5780601f106102215761010080835404028352916020019161024c565b820191906000526020600020905b81548152906001019060200180831161022f57829003601f168201915b505050505090806003018054610261906112d6565b80601f016020809104026020016040519081016040528092919081815260200182805461028d906112d6565b80156102da5780601f106102af576101008083540402835291602001916102da565b820191906000526020600020905b8154815290600101906020018083116102bd57829003601f168201915b5050505050908060040180546102ef906112d6565b80601f016020809104026020016040519081016040528092919081815260200182805461031b906112d6565b80156103685780601f1061033d57610100808354040283529160200191610368565b820191906000526020600020905b81548152906001019060200180831161034b57829003601f168201915b50505050509080600501805461037d906112d6565b80601f01602080910402602001604051908101604052809291908181526020018280546103a9906112d6565b80156103f65780601f106103cb576101008083540402835291602001916103f6565b820191906000526020600020905b8154815290600101906020018083116103d957829003601f168201915b50505050509080600601805461040b906112d6565b80601f0160208091040260200160405190810160405280929190818152602001828054610437906112d6565b80156104845780601f1061045957610100808354040283529160200191610484565b820191906000526020600020905b81548152906001019060200180831161046757829003601f168201915b505050505090806007018054610499906112d6565b80601f01602080910402602001604051908101604052809291908181526020018280546104c5906112d6565b80156105125780601f106104e757610100808354040283529160200191610512565b820191906000526020600020905b8154815290600101906020018083116104f557829003601f168201915b505050505090806008018054610527906112d6565b80601f0160208091040260200160405190810160405280929190818152602001828054610553906112d6565b80156105a05780601f10610575576101008083540402835291602001916105a0565b820191906000526020600020905b81548152906001019060200180831161058357829003601f168201915b5050505050905089565b6105b2610bdb565b6000604051806101200160405290816000820180546105d0906112d6565b80601f01602080910402602001604051908101604052809291908181526020018280546105fc906112d6565b80156106495780601f1061061e57610100808354040283529160200191610649565b820191906000526020600020905b81548152906001019060200180831161062c57829003601f168201915b50505050508152602001600182018054610662906112d6565b80601f016020809104026020016040519081016040528092919081815260200182805461068e906112d6565b80156106db5780601f106106b0576101008083540402835291602001916106db565b820191906000526020600020905b8154815290600101906020018083116106be57829003601f168201915b505050505081526020016002820180546106f4906112d6565b80601f0160208091040260200160405190810160405280929190818152602001828054610720906112d6565b801561076d5780601f106107425761010080835404028352916020019161076d565b820191906000526020600020905b81548152906001019060200180831161075057829003601f168201915b50505050508152602001600382018054610786906112d6565b80601f01602080910402602001604051908101604052809291908181526020018280546107b2906112d6565b80156107ff5780601f106107d4576101008083540402835291602001916107ff565b820191906000526020600020905b8154815290600101906020018083116107e257829003601f168201915b50505050508152602001600482018054610818906112d6565b80601f0160208091040260200160405190810160405280929190818152602001828054610844906112d6565b80156108915780601f1061086657610100808354040283529160200191610891565b820191906000526020600020905b81548152906001019060200180831161087457829003601f168201915b505050505081526020016005820180546108aa906112d6565b80601f01602080910402602001604051908101604052809291908181526020018280546108d6906112d6565b80156109235780601f106108f857610100808354040283529160200191610923565b820191906000526020600020905b81548152906001019060200180831161090657829003601f168201915b5050505050815260200160068201805461093c906112d6565b80601f0160208091040260200160405190810160405280929190818152602001828054610968906112d6565b80156109b55780601f1061098a576101008083540402835291602001916109b5565b820191906000526020600020905b81548152906001019060200180831161099857829003601f168201915b505050505081526020016007820180546109ce906112d6565b80601f01602080910402602001604051908101604052809291908181526020018280546109fa906112d6565b8015610a475780601f10610a1c57610100808354040283529160200191610a47565b820191906000526020600020905b815481529060010190602001808311610a2a57829003601f168201915b50505050508152602001600882018054610a60906112d6565b80601f0160208091040260200160405190810160405280929190818152602001828054610a8c906112d6565b8015610ad95780601f10610aae57610100808354040283529160200191610ad9565b820191906000526020600020905b815481529060010190602001808311610abc57829003601f168201915b505050505081525050905090565b88600080019080519060200190610aff929190610c27565b508760006001019080519060200190610b19929190610c27565b508660006002019080519060200190610b33929190610c27565b508560006003019080519060200190610b4d929190610c27565b508460006004019080519060200190610b67929190610c27565b508360006005019080519060200190610b81929190610c27565b508260006006019080519060200190610b9b929190610c27565b508160006007019080519060200190610bb5929190610c27565b508060006008019080519060200190610bcf929190610c27565b50505050505050505050565b6040518061012001604052806060815260200160608152602001606081526020016060815260200160608152602001606081526020016060815260200160608152602001606081525090565b828054610c33906112d6565b90600052602060002090601f016020900481019282610c555760008555610c9c565b82601f10610c6e57805160ff1916838001178555610c9c565b82800160010185558215610c9c579182015b82811115610c9b578251825591602001919060010190610c80565b5b509050610ca99190610cad565b5090565b5b80821115610cc6576000816000905550600101610cae565b5090565b600081519050919050565b600082825260208201905092915050565b60005b83811015610d04578082015181840152602081019050610ce9565b83811115610d13576000848401525b50505050565b6000601f19601f8301169050919050565b6000610d3582610cca565b610d3f8185610cd5565b9350610d4f818560208601610ce6565b610d5881610d19565b840191505092915050565b6000610120820190508181036000830152610d7e818c610d2a565b90508181036020830152610d92818b610d2a565b90508181036040830152610da6818a610d2a565b90508181036060830152610dba8189610d2a565b90508181036080830152610dce8188610d2a565b905081810360a0830152610de28187610d2a565b905081810360c0830152610df68186610d2a565b905081810360e0830152610e0a8185610d2a565b9050818103610100830152610e1f8184610d2a565b90509a9950505050505050505050565b600082825260208201905092915050565b6000610e4b82610cca565b610e558185610e2f565b9350610e65818560208601610ce6565b610e6e81610d19565b840191505092915050565b6000610120830160008301518482036000860152610e978282610e40565b91505060208301518482036020860152610eb18282610e40565b91505060408301518482036040860152610ecb8282610e40565b91505060608301518482036060860152610ee58282610e40565b91505060808301518482036080860152610eff8282610e40565b91505060a083015184820360a0860152610f198282610e40565b91505060c083015184820360c0860152610f338282610e40565b91505060e083015184820360e0860152610f4d8282610e40565b915050610100830151848203610100860152610f698282610e40565b9150508091505092915050565b60006020820190508181036000830152610f908184610e79565b905092915050565b6000604051905090565b600080fd5b600080fd5b600080fd5b600080fd5b7f4e487b7100000000000000000000000000000000000000000000000000000000600052604160045260246000fd5b610fee82610d19565b810181811067ffffffffffffffff8211171561100d5761100c610fb6565b5b80604052505050565b6000611020610f98565b905061102c8282610fe5565b919050565b600067ffffffffffffffff82111561104c5761104b610fb6565b5b61105582610d19565b9050602081019050919050565b82818337600083830152505050565b600061108461107f84611031565b611016565b9050828152602081018484840111156110a05761109f610fb1565b5b6110ab848285611062565b509392505050565b600082601f8301126110c8576110c7610fac565b5b81356110d8848260208601611071565b91505092915050565b60008060008060008060008060006101208a8c03121561110457611103610fa2565b5b60008a013567ffffffffffffffff81111561112257611121610fa7565b5b61112e8c828d016110b3565b99505060208a013567ffffffffffffffff81111561114f5761114e610fa7565b5b61115b8c828d016110b3565b98505060408a013567ffffffffffffffff81111561117c5761117b610fa7565b5b6111888c828d016110b3565b97505060608a013567ffffffffffffffff8111156111a9576111a8610fa7565b5b6111b58c828d016110b3565b96505060808a013567ffffffffffffffff8111156111d6576111d5610fa7565b5b6111e28c828d016110b3565b95505060a08a013567ffffffffffffffff81111561120357611202610fa7565b5b61120f8c828d016110b3565b94505060c08a013567ffffffffffffffff8111156112305761122f610fa7565b5b61123c8c828d016110b3565b93505060e08a013567ffffffffffffffff81111561125d5761125c610fa7565b5b6112698c828d016110b3565b9250506101008a013567ffffffffffffffff81111561128b5761128a610fa7565b5b6112978c828d016110b3565b9150509295985092959850929598565b7f4e487b7100000000000000000000000000000000000000000000000000000000600052602260045260246000fd5b600060028204905060018216806112ee57607f821691505b602082108103611301576113006112a7565b5b5091905056fea26469706673582212201d72358b2cd2540763ded98c59f1390180829bf12ba24e3d18369becdb7d807464736f6c634300080d0033",
  "immutableReferences": {},
  "source": "// SPDX-License-Identifier: MIT\r\npragma solidity >=0.4.22 <0.9.0;\r\ncontract ClaimContract {\r\n\r\n    struct ClaimInformation{\r\n        string claimNumber;\r\n        string accNumber;\r\n        string firstName;\r\n        string lastName;\r\n        string email;\r\n        string vehcileReg;\r\n        string accidentDesc;\r\n        string dateOfAccident;\r\n        string progress;\r\n    }\r\n\r\n    ClaimInformation public claimInformation;\r\n\r\n    constructor() public{\r\n        claimInformation.claimNumber = \"default\";\r\n        claimInformation.accNumber = \"default\";\r\n        claimInformation.firstName = \"default\";\r\n        claimInformation.lastName = \"default\";\r\n        claimInformation.email = \"default\";\r\n        claimInformation.vehcileReg = \"default\";\r\n        claimInformation.accidentDesc = \"default\";\r\n        claimInformation.dateOfAccident = \"default\";\r\n        claimInformation.progress = \"default\";\r\n    }\r\n\r\n    function getClaimInfo() public view returns(ClaimInformation memory) {\r\n        return claimInformation;\r\n    }\r\n\r\n    function setClaimInfo(string memory _claimNumber, string memory _accNumber, string memory _firstName, string memory _lastName, string memory _email, \r\n                            string memory _vehicleReg, string memory _accidentDesc, string memory _dateOfAccident, string memory _progress) public {\r\n        claimInformation.claimNumber = _claimNumber;\r\n        claimInformation.accNumber = _accNumber;\r\n        claimInformation.firstName = _firstName;\r\n        claimInformation.lastName = _lastName;\r\n        claimInformation.email = _email;\r\n        claimInformation.vehcileReg = _vehicleReg;\r\n        claimInformation.accidentDesc = _accidentDesc;\r\n        claimInformation.dateOfAccident = _dateOfAccident;\r\n        claimInformation.progress = _progress;\r\n    }\r\n}",
  "sourcePath": "C:\\Users\\Wade\\Documents\\Uni\\2023 Term 3\\Blockchain Technologies\\DevelopmentProject\\TruffleApp\\contracts\\ClaimContract.sol",
  "compiler": {
    "name": "solc",
    "version": "0.8.13+commit.abaa5c0e.Emscripten.clang"
  },
  "schemaVersion": "3.4.16",
  "updatedAt": "2024-02-02T05:50:44.790Z",
  "networkType": "ethereum",
  "devdoc": {
    "kind": "dev",
    "methods": {},
    "version": 1
  },
  "userdoc": {
    "kind": "user",
    "methods": {},
    "version": 1
  }
}